:020000040800F2
:1000000000100020A10800088D0800088F080008D3
:1000100000000000000000000000000000000000E0
:10002000000000000000000000000000910800082F
:100030000000000000000000930800089508000878
:10004000F108000800000000F1080008F1080008AD
:10005000F1080008F1080008F1080008F10800089C
:1000600000000000F1080008F1080008F10800088D
:10007000F1080008F1080008F1080008000000007D
:10008000F10800080000000000000000F10800086E
:1000900000000000F1080008F1080008F10800085D
:1000A00000000000F108000800000000F10800084E
:1000B0000000000000000000000000000000000040
:1000C00010B5064C2378002B07D1054B002B02D02E
:1000D000044800E000BF0123237010BD3C04002051
:1000E00000000000781B0008044B10B5002B03D063
:1000F0000349044800E000BF10BDC04600000000F6
:1001000040040020781B0008002243088B4274D36F
:1001100003098B425FD3030A8B4244D3030B8B4208
:1001200028D3030C8B420DD3FF22090212BA030C11
:100130008B4202D31212090265D0030B8B4219D3F2
:1001400000E0090AC30B8B4201D3CB03C01A524112
:10015000830B8B4201D38B03C01A5241430B8B425A
:1001600001D34B03C01A5241030B8B4201D30B0343
:10017000C01A5241C30A8B4201D3CB02C01A52416A
:10018000830A8B4201D38B02C01A5241430A8B422D
:1001900001D34B02C01A5241030A8B4201D30B0216
:1001A000C01A5241CDD2C3098B4201D3CB01C01A30
:1001B000524183098B4201D38B01C01A524143093A
:1001C0008B4201D34B01C01A524103098B4201D328
:1001D0000B01C01A5241C3088B4201D3CB00C01A95
:1001E000524183088B4201D38B00C01A524143080D
:1001F0008B4201D34B00C01A5241411A00D2014632
:10020000524110467047FFE701B5002000F006F8A4
:1002100002BDC0460029F7D076E770477047C04658
:10022000F0B589B01422002103A801F0CFFB1B4BCD
:10023000596980208002014359615A690240019244
:10024000019A5A698021C9020A435A615B690B40CD
:100250000293029B8224A4009027FF050022210024
:10026000380000F0B5FC0E4D00220221280000F0FD
:10027000AFFC03940126049600240594069403A978
:10028000380000F0DFFB02230393049605940694E4
:1002900003A9280000F0D6FB09B0F0BD0010024011
:1002A0000004004870B5642000F06EFB9024E40563
:1002B00001220821200000F08BFC642000F064FB88
:1002C00000220821200000F083FCC82000F05CFB25
:1002D00001220821200000F07BFC642000F054FB88
:1002E000642000F051FB8025AD0001222900200090
:1002F00000F06EFC642000F047FB00222900200083
:1003000000F066FC9620400000F03EFB0122290030
:10031000200000F05DFC642000F036FB642000F05B
:1003200033FB074C00220221200000F051FC642026
:1003300000F02AFB01220221200000F049FC70BDE0
:100340000004004810B58AB203230100014801F0FF
:1003500019F910BD5804002070B588B00E001500C2
:100360008B1C9BB203AC03220092220001000E48BA
:1003700001F0E2F971000B5B5B08DBB20B226A440F
:1003800013700B5BDB015BB201367600315B8908D1
:100390000B43DBB20A2169440B7013782B800B7876
:1003A0006B8008B070BDC0465804002000B583B013
:1003B0006B469880FA236A46D380022101A8FFF792
:1003C000CBFF6B460020185E6B465B881B02184310
:1003D00080B203B000BD10B582B06B461880FF201C
:1003E000084080246400204358800B0A2343694658
:1003F0008B80511C6846FFF7A5FF02B010BD0000BE
:10040000F0B585B004000F00160002221649B7208F
:10041000FFF7E1FF02220021B820FFF7DCFFB1B2B5
:100420000222BC20FFF7D7FF03A8BF2303800121CE
:10043000FFF788FF80235B00234302A8038001218C
:10044000FFF780FF00240AE06300DD5B01A8802342
:100450005B002B4303800121FFF774FF0134731EFF
:10046000A342F1DC05B0F0BD02030000F0B585B099
:1004700004000F00160002225021B720FFF7ABFF47
:1004800002220021B820FFF7A6FFB1B20222BC2051
:10049000FFF7A1FF03A8BF2303800121FFF752FF4D
:1004A00080235B00234302A803800121FFF74AFF5A
:1004B00000240AE06300DD5B01A880235B002B437E
:1004C00003800121FFF73EFF0134731EA342F1DCDC
:1004D00005B0F0BD10B582B0FF230B406C46A38081
:1004E000090AE18001A9FFF78BFF02B010BD10B52A
:1004F00082B0FF230B406C46A380090AE18001A96A
:10050000FFF7B4FF02B010BD70B504000E00150077
:1005100002221C49B720FFF75EFF0222FF21C12003
:10052000FFF759FF02220121C020FFF754FF0222EA
:100530000121BC20FFF74FFFA1B20222BF20FFF72D
:100540004AFF002E03D0C220FFF730FF3080002D7D
:100550000DD0C620FFF72AFFC3070CD401232B8040
:10056000C320FFF723FF002808D002232B80FF20A1
:10057000FFF71CFF70BD00232B80F1E700232B80C9
:10058000F5E7C0468203000070B504000E001500B8
:1005900002221C49B720FFF71EFF0222FF21C120C3
:1005A000FFF719FF02220121C020FFF714FF0222EA
:1005B0000121BC20FFF70FFFA1B20222BF20FFF7ED
:1005C0000AFF002E03D0C220FFF7F0FE3080002D7E
:1005D0000DD0C620FFF7EAFEC3070CD401232B8001
:1005E000C320FFF7E3FE002808D002232B80FF2062
:1005F000FFF7DCFE70BD00232B80F1E700232B808A
:10060000F5E7C046C203000072B6FEE700B591B040
:100610003022002104A801F0D9F9102200216846F7
:1006200001F0D4F902230493013B07930F3308939D
:1006300004A800F0D3FA00280DD10723009300236B
:100640000193029303930021684600F04DFD0028BA
:1006500003D111B000BDFFF7D7FFFFF7D5FF0000B2
:10066000F0B5C64600B586B000F06CF9FFF7CEFFD6
:10067000FFF7D6FD00F09AF8FFF714FE9620400031
:1006800000F082F9C024E40002222100EE20FFF7EE
:10069000A2FE87210222C900B420FFF79CFEF021B0
:1006A0000222C900B520FFF796FE02220321DE20B8
:1006B000FFF791FE02220021B920FFF78CFE0222F3
:1006C0003649BA20FFF787FE02220121B920FFF741
:1006D00082FE02220021B820FFF77DFE02220421C3
:1006E000B020FFF7F7FE012200210020FFF7F2FE05
:1006F000012200210020FFF7EDFE02220121D62079
:10070000FFF7E8FE04A9264B1A6804929B888B80A9
:1007100003225120FFF7AAFE022204215320FFF7F3
:10072000E6FE012200212920FFF7E1FE012200213F
:100730001120FFF7DCFE02221A49B620FFF74BFE1C
:1007400002222100EE20FFF746FE02220321DE20D6
:10075000FFF741FE02221449B720FFF73CFE02AE2C
:100760006B469F1D32003900B020FFF7CDFE01AC73
:1007700020800E256D4403AB98462A0019005120B5
:10078000FFF702FF0A236B44188022883A883288D8
:100790001B8843461B882B8874E7C04628800000CE
:1007A000901B000803C000004B02000010B5104869
:1007B000104B036082235B00436000238360802230
:1007C0001201C260036143618022D2028261082269
:1007D000C2610362436283620721C16203634263B1
:1007E00000F04EFE002800D110BDFFF70DFFFBE723
:1007F000580400200030014010B588B004001422D5
:10080000002103A801F0E2F82268124B9A4201D0BD
:1008100008B010BD104B99698020400101439961D7
:100820009A6902400192019A5A69802189020A4319
:100830005A615B690B400293029BF0230393EE3BEA
:10084000049301330693902003A9C00500F0FAF841
:10085000DEE7C046003001400010024082B00A4B83
:10086000996901221143996199690A400092009A9D
:10087000DA69802149050A43DA61DB690B4001939B
:10088000019B02B07047C04600100240FEE7FEE741
:100890007047704710B500F065F810BD7047000054
:1008A0000D4885460D480E490E4A002302E0D458F3
:1008B000C4500433C4188C42F9D30B4A0B4C0023A8
:1008C00001E013600432A242FBD3FFF7E7FF01F01F
:1008D0005BF8FFF7C5FEFEE70010002000000020D7
:1008E0003C040020E01B00083C040020C40400205D
:1008F000FEE7000010B504000F4B1978FA208000C5
:10090000FFF702FC01000D4B1868FFF7FDFB00F03C
:100910007DF800280DD1032C01D901200AE0013017
:1009200000222100404200F041F8054B1C600020ED
:1009300000E0012010BDC04604000020000000209F
:100940000800002010B5064A136810210B431360FD
:100950000320FFF7CFFFFFF781FF002010BDC04647
:1009600000200240034A1168034B1B785B18136098
:100970007047C046BC04002004000020014B1868EA
:100980007047C046BC04002070B50400FFF7F6FFB6
:100990000500631C02D0044B1B78E418FFF7EEFF40
:1009A000401BA042FAD370BD0400002070B500289F
:1009B00011DB8308134EC0339B009D590324204054
:1009C000C000FF2214008440A54389010A408240F0
:1009D0002A439A5170BD0F230340083B9B080633FE
:1009E0009B00094A944663445C6803221040C0009F
:1009F000FC3215008540AC4389010A408240224305
:100A00005A60E7E700E100E000ED00E001388023F4
:100A10005B0498420FD2094A50600948036A1B02DE
:100A20001B0AC02109060B430362002393600733AE
:100A30001360002070470120FCE7C04610E000E092
:100A400000ED00E0F0B583B0002357E084685F005C
:100A50000326BE40B4432600CC68BC4034438460C7
:100A6000446894434A681609012232409A4022435E
:100A7000426053E0DC080834A400265805321A40CE
:100A800092000F279740BE430F6997403A003243C8
:100A9000225057E0032600E00026A64034003C43E5
:100AA00002329200444E9451444A1468EA432600AC
:100AB000AE434F68FF0301D52C4326003F4C266010
:100AC0006468260016404F68BF0301D52C432600FA
:100AD0003A4C6660A468260016404F68FF0201D5B4
:100AE0002C432600354CA660E46822404E68B602CE
:100AF00001D52A002243314CE26001330C68220008
:100B0000DA4057D001229A40250015401442F4D013
:100B100003244E683440013C012C97D903224C68D1
:100B20002240032A09D0C2685E000324B440A243D5
:100B300014008A68B2402243C26003224C682240FB
:100B4000022A97D004685E0003221700B740BC4316
:100B50004F683A40B24022430260C02292024C6881
:100B60001442CAD0164CA66901221643A661A46994
:100B700022400192019A9A08941CA4000E4EA75993
:100B800003241C40A4000F26A640B7439026F60578
:100B9000B04281D00B4EB04208D00B4EB04207D0CD
:100BA0000A4EB04200D175E7052676E7012674E7C4
:100BB000022672E703B0F0BD0000014000040140CE
:100BC000001002400004004800080048000C0048E3
:100BD000002A01D0816170478162FCE770B582B064
:100BE000041E00D12EE20368DB0726D5AE4B5A68FF
:100BF0000C231340042B18D0AB4B5A680C23134022
:100C0000082B0ED06368012B3CD0002B51D1A64B92
:100C10001A68A6490A401A601A68A5490A401A606B
:100C200036E0A14B5B68DB03ECD59F4B1B689B0355
:100C300003D56368002B00D107E223689B0772D5B8
:100C4000994B5B680C221A425DD0974B5A680C2373
:100C50001340082B53D0E368002B00D185E0924A63
:100C6000136801210B431360FFF788FE05008E4BCC
:100C70001B689B0770D4FFF781FE401B0228F6D942
:100C80000320E0E1884A116880235B020B43136074
:100C90006368002B25D0FFF771FE0500824B1B68AF
:100CA0009B03CAD4FFF76AFE401B6428F6D90320D1
:100CB000C9E1052B09D07C4B1A687C490A401A60AF
:100CC0001A687B490A401A60E2E7774B196880226C
:100CD000D2020A431A601968802252020A431A603B
:100CE000D6E7FFF74BFE05006F4B1B689B03A4D5AF
:100CF000FFF744FE401B6428F6D90320A3E16A4BAA
:100D00005B68DB03A7D4684B1B689B0703D5E368CC
:100D1000012B00D09BE164490B68F82293432269C0
:100D2000D20013430B6023681B0744D5E369002BF3
:100D30002ED05D4A536A01210B435362FFF71EFE1A
:100D40000500594B5B6A9B0735D4FFF717FE401B24
:100D50000228F6D9032076E153490B68F822934321
:100D60002269D20013430B60DDE74F4A136801216B
:100D70008B431360FFF702FE05004B4B1B689B077C
:100D8000D1D5FFF7FBFD401B0228F6D903205AE11D
:100D9000454A536A01218B435362FFF7EFFD05007B
:100DA000414B5B6A9B0706D5FFF7E8FD401B022815
:100DB000F6D9032047E123685B0700D480E03A4B73
:100DC000DB69DB001DD4384AD1698020400501432E
:100DD000D161D36903400193019B0125354B1B6809
:100DE000DB0510D5A368012B21D0002B36D12E4B6B
:100DF0001A6A01218A431A621A6A03318A431A6203
:100E00001AE00025EAE72B4A116880235B000B43B8
:100E10001360FFF7B3FD0600264B1B68DB05E1D42A
:100E2000FFF7ACFD801B6428F6D903200BE11E4AB6
:100E3000136A01210B431362A368002B24D0FFF730
:100E40009DFD0600184B1B6A9B0737D4FFF796FDE4
:100E5000801B194B9842F5D90320F4E0052B09D0EB
:100E6000114B1A6A01218A431A621A6A03318A43B2
:100E70001A62E1E70C4B1A6A04210A431A621A6AE1
:100E800003390A431A62D7E7FFF778FD0600064BDD
:100E90001B6A9B0712D5FFF771FD801B064B98421A
:100EA000F5D90320CFE0C04600100240FFFFFEFF4F
:100EB000FFFFFBFF0070004088130000012D33D0BE
:100EC0002368DB0610D56369012B33D0053351D17C
:100ED000654A536B04218B435363536BF4318B434B
:100EE000A169C9000B435363236A002B00D1B0E012
:100EF0005D4A51680C220A40082A00D18AE0022B80
:100F00004FD0594A136859490B401360FFF736FD1B
:100F10000400554B1B689B017AD5FFF72FFD001B82
:100F20000228F6D903208EE04F4AD36950490B407E
:100F3000D361C5E74C4B5A6B04210A435A635A6B81
:100F400003390A435A63FFF719FD0500464B5B6BF3
:100F50009B0706D4FFF712FD401B0228F6D9032099
:100F600071E041494B6BF8229343A269D2001343CD
:100F70004B63B9E73C4B5A6B04210A435A635A6BE3
:100F800003398A435A63FFF7F9FC0500364B5B6B64
:100F90009B07A9D5FFF7F2FC401B0228F6D90320D6
:100FA00051E0314A136831490B401360FFF7E6FC0A
:100FB00005002D4B1B689B0106D5FFF7DFFC401B8E
:100FC0000228F6D903203EE0274BDA6A0F218A4334
:100FD000E16A0A43DA625A6826490A40A16A606AED
:100FE00001430A435A601968802252040A431A6076
:100FF000FFF7C4FC04001C4B1B689B0106D4FFF7E1
:10100000BDFC001B0228F6D903201CE000201AE0DA
:10101000002018E0012B1ED0134B5A68D96A802398
:101020005B021340606A834217D10F230B40E16AD1
:101030008B4214D1F0239B031A40A36A9A4210D129
:10104000002000E0012002B070BD0120FBE701207C
:10105000F9E70020F7E70120F5E70120F3E7012099
:10106000F1E70120EFE7C04600100240FFFFFFFE5E
:10107000FFFFFFEFFFFFC2FF10B588B004AA164BB9
:1010800013CB13C21B6813606A46144B13CB13C2F5
:101090001B681360124B5A680C231340082B02D0B4
:1010A000104808B010BD910C0733194004A8445CE7
:1010B0000B49C96A0B406946C95CD30304D509488A
:1010C000FFF722F86043ECE763011B1B9801C01A8D
:1010D000C00000190002E4E7A81B0008BC1B0008C0
:1010E0000010024000127A0070B504000D000028C4
:1010F00000D17EE0434B1A68012313408B420AD291
:1011000040490B68012293432B430B600B681A4044
:10111000AA4200D06FE023689A070ED55B0705D579
:10112000394A5168E023DB000B435360364A536869
:10113000F0218B43A1680B4353602368DB072DD557
:101140006368012B1ED0022B22D02F4A126892070F
:1011500053D52D494A680320824313434B60FFF760
:101160000DFC0600284B5B680C221A4063689B004C
:101170009A4213D0FFF702FC801B244B9842F1D90E
:10118000032035E0204A12689203E2D401202FE0C8
:101190001D4A12689201DCD4012029E0194B1A681B
:1011A00001231340AB4209D916490B68012293432E
:1011B0002B430B600B681A40AA4220D123685B07BF
:1011C00006D5114A536812490B40E1680B4353603E
:1011D000FFF752FF0C4B5A6812090F2313400D4AB8
:1011E000D35CD8400C4B18600320FFF783FB002032
:1011F00070BD0120FCE70120FAE70120F8E701209B
:10120000F6E7C046002002400010024088130000AC
:10121000FFF8FFFF981B000800000020F0B5D6463D
:101220004F464646C0B582B006000D0090461F00EE
:10123000FFF7A4FB0A9B181A8146B944FFF79EFBEF
:1012400082462E4B1B685B011B0D4A46534301939C
:1012500033689C682C40641B63425C41444545D024
:101260007B1CF5D0FFF78AFB5346C01A48450BD2CA
:101270004B46002B08D0019A002A00D04A46019B19
:10128000013B01939146E3E732685368E0218B43C9
:10129000536082235B0072689A420CD080239B01CA
:1012A000B26A9A4216D05D230122F254013B002219
:1012B000F25403201BE0B36880221202934203D051
:1012C0008022D2009342E9D13268136840218B43D7
:1012D0001360E3E73268136809490B401360326812
:1012E000116880239B010B431360DCE7002002B0F0
:1012F000E0BCBA46B146A846F0BDC046000000209A
:10130000FFDFFFFFF0B5DE4657464E464546E0B5E7
:1013100083B007000D00160098466B460022DA7075
:10132000FFF72CFB0C9B181A40448146FFF726FB65
:1013300082463B689B46364B1A6893009A18D30046
:101340009B1A1B0D4A465343019302E04346013367
:1013500011D13B689C682C40B44250D0C023DB00C4
:101360009D42F3D1002EF1D15B461B7BDBB26A4676
:10137000D370D378EAE7FFF701FB5346C01A48451C
:101380000BD24B46002B08D0019A002A00D04A46C7
:10139000019B013B01939146DBE73A685368E021EA
:1013A0008B43536082235B007A689A420CD080237F
:1013B0009B01BA6A9A4216D05D230122FA54013B7E
:1013C0000022FA5403201BE0BB68802212029342E1
:1013D00003D08022D2009342E9D13A6813684021B9
:1013E0008B431360E3E73A6813680A490B401360C4
:1013F0003A68116880239B010B431360DCE70020EF
:1014000003B0F0BCBB46B246A946A046F0BDC046FC
:1014100000000020FFDFFFFF70B582B004000D0068
:101420001600C02100922B0000224901FFF76AFF3D
:10143000002818D100962B00002280212000FFF701
:10144000EDFE002816D1C02100962B000022C90015
:101450002000FFF757FF00280AD0236E20221343F5
:101460002366032004E0236E202213432366032017
:1014700002B070BD236E2022134323660320F7E7DA
:1014800070B5041E00D178E0436A002B07D1053304
:10149000FF3342689A4205D00023C36102E0002373
:1014A000036143610023A3625D33E35C002B5AD0E8
:1014B0005D230222E2542268136840218B431360AB
:1014C000E368E022D200934254D90022F0210901BE
:1014D0008B4205D0E021C9008B4201D00023A362DA
:1014E00082235B0061680B4084210902A0680140EF
:1014F0000B430221206901400B4301216069084030
:10150000034380208000A569284003433820E56913
:10151000284003438020256A28400343802080011F
:10152000A56A2840034320680360608B04230340BE
:101530001020656A284003430820656B2840034358
:10154000F0200001E568284003432068134343600E
:101550002268D3690A480340D361002323665D33C0
:10156000E154002070BD5C330022E2542000FFF7FC
:1015700043F99DE780225201A8E70120F2E7C04627
:10158000FFF7FFFFF0B5CE4600B584B0040001912F
:1015900091461D005C23C35C012B00D1C9E05C2394
:1015A0000122C254FFF7EAF906005D23E35CDFB2D3
:1015B000012B00D0A9E00199002900D1A6E04B46FB
:1015C000002B00D1A2E05D230322E2540023236616
:1015D000A1634A46A287E28723644422A3520232CF
:1015E000A3522365E36480231B02A2689A421ED0A3
:1015F00023681A68520603D41A6840210A431A6005
:10160000E023DB00E2689A4239D96368002B02D0FC
:101610004B46012B20D12368A26B1288DA60A36BA2
:101620000233A363E38F013B9BB2E38714E022689C
:10163000136840218B431360226811688023DB010B
:101640000B431360D4E7FFF799F9801BA84201D33D
:101650006B1C66D1002D66D0E18F89B200293CD089
:1016600023689A689207EED5A26B1288DA60A36BA2
:101670000233A363E38F013B9BB2E387ECE763682C
:10168000002B02D04B46012B14D1A36B1B78226890
:101690001373A36B0133A363E38F013B9BB2E38717
:1016A00008E0FFF76BF9801BA84201D36B1C3CD10B
:1016B000002D3CD0E18F89B200290ED023689A68B2
:1016C0009207EED5A26B12781A73A36B0133A36352
:1016D000E38F013B9BB2E387ECE732002900200057
:1016E000FFF79AFE002801D020232366A368002B71
:1016F00006D103932368DA6803929B680393039BE4
:10170000236E002B02D1002700E002275D23012277
:10171000E254013B0022E254380004B080BCB946D8
:10172000F0BD0327F2E70327F0E70327EEE70327DF
:10173000ECE70227F0E70000F0B583B00400009169
:1017400001921E00089D5C23C35C012B00D116E1B1
:101750005C230122C254FFF711F907005D23E35C0B
:10176000D9B26268012B0BD082235B009A4200D071
:10177000ECE0A368002B00D0F1E0042900D0F0E0F9
:10178000009B002B00D1EEE0019B002B00D1ECE090
:10179000002E00D1EBE05D23E35C042B02D05D233F
:1017A0000522E25400232366019A22644622A652AF
:1017B000023AA652009AA263E687A687E3642365ED
:1017C000E023DB00E2689A4223D9226853686D491E
:1017D0000B40536023681A68520603D41A684021EC
:1017E0000A431A60E023DB00E2689A4254D9636836
:1017F000002B01D0012E0AD12368A26B1288DA6077
:10180000A36B0233A363E38F013B9BB2E387012603
:101810002EE02268516880235B010B435360D9E7B7
:10182000A26B1288DA60A36B0233A363E38F013BE0
:101830009BB2E387002623689A68D20710D5462218
:10184000A25A92B2002A0BD0DB68226C1380236C60
:10185000023323644622A35A013B9BB2A3520126C2
:10186000FFF78CF8C01BA84202D36B1C00D080E0AD
:10187000E38F9BB2002B04D14633E35A9BB2002B7B
:1018800059D023689A689207D5D5E28F92B2002A80
:10189000D1D0012ECFD1C3E76368002B01D0012E38
:1018A0000AD1A36B1B7822681373A36B0133A36364
:1018B000E38F013B9BB2E38701261DE023689A6812
:1018C000D20710D54622A25A92B2002A0BD01B7B17
:1018D000226C1370236C013323644622A35A013B0C
:1018E0009BB2A3520126FFF749F8C01BA84201D3BF
:1018F0006B1C40D1002D40D0E38F9BB2002B04D154
:101900004633E35A9BB2002B15D023689A6892079E
:10191000D4D5E28F92B2002AD0D0012ECED1A26BC4
:1019200012781A73A36B0133A363E38F013B9BB25D
:10193000E3870026C2E73A0029002000FFF76CFD8C
:10194000002804D020232366012000E002205D232C
:101950000122E254013B0022E25403B0F0BD022018
:10196000F5E70220F3E70120F1E70120EFE701208E
:10197000EDE70320EBE70320E9E70320E7E7022098
:10198000EBE7C046FFEFFFFF70B50C4D0C4E761B2A
:10199000B61005D0002408CD01349847A642FAD1EC
:1019A00000F0EAF8074D084E761BB61005D000246B
:1019B00008CD01349847A642FAD170BDD41B000867
:1019C000D41B0008D41B0008DC1B0008F0B5050080
:1019D000830749D0541E002A45D003000326CAB20B
:1019E00002E00135013C3ED301332A703342F8D185
:1019F000032C30D9FF220A40150215432A0415434F
:101A00000F2C34D92700103F3F093E01B4461E0079
:101A10001A0010366644156055609560D560103226
:101A2000B242F8D101373F01DB190F270C222740C2
:101A300022403C00002A0ED03E1FB608B400A44647
:101A40001A001C1D644420C2A242FCD103240136AA
:101A5000B6009B193C40002C05D0C9B21C19197066
:101A600001339C42FBD1F0BD03001400C0E7270006
:101A7000E2E7C046034B10B5002B02D0024800F04D
:101A800005F810BD000000009D1A000810B5010007
:101A900000230022002000F019F810BD70B5074D9A
:101AA000074C641BA41005D0013CA300EB589847D9
:101AB000002CF9D100F066F870BDC046DC1B0008B0
:101AC000E01B00087047C0467047C046F0B5D646D8
:101AD0004F464646C0B5264F82B00600386892464B
:101AE00098468946FFF7EEFF224B1B680193A4231B
:101AF000019A5B00D558002D2ED06C681F2C30DC6D
:101B0000002E0FD1631C6B604B460234A400386872
:101B10006351FFF7D9FF002002B0E0BCBA46B146DE
:101B2000A846F0BD882251462800A300EB18995022
:101B3000873AA2408930FF30016811430160842157
:101B4000404649005850022EDCD12B008D33FF3324
:101B500019680A431A60D5E715004D35FF35D55091
:101B6000CBE73868FFF7B0FF01204042D4E7C0461A
:101B700038040020D01B0008F8B5C046F8BC08BCEB
:101B80009E467047F8B5C046F8BC08BC9E467047F4
:101B90000F00FF0000000000000000000000000037
:101BA00001020304060708090203040506070809E1
:101BB0000A0B0C0D0E0F10100000000001020304B0
:101BC00005060708090A0B0C0D0E0F100000000097
:041BD00010000020E1
:081BD400751A0008E900000881
:041BDC00C10000083C
:101BE00000127A0001000000040000000000000064
:101BF00000000000FC02002064030020CC03002051
:101C000000000000000000000000000000000000D4
:101C100000000000000000000000000000000000C4
:101C200000000000000000000000000000000000B4
:101C300000000000000000000000000000000000A4
:101C40000000000000000000000000000000000094
:101C50000000000000000000000000000000000084
:101C60000000000000000000000000000000000074
:101C70000000000000000000000000000000000064
:101C80000000000000000000000000000000000054
:101C90000000000000000000010000000000000043
:101CA0000E33CDAB34126DE6ECDE05000B00000008
:101CB0000000000000000000000000000000000024
:101CC0000000000000000000000000000000000014
:101CD0000000000000000000000000000000000004
:101CE00000000000000000000000000000000000F4
:0C2010000000000000000000C0040020E0
:04000005080008A146
:00000001FF
